:020000040800F2
:1000000028EA0020310300086596000835710008D1
:1000100061960008B110000895FF0008000000007C
:100020000000000000000000000000007102000855
:100030005923000800000000CD02000885CF000809
:100040004B0300084B0300084B0300084B03000858
:100050004B0300084B0300085B2300084B03000818
:100060004B030008652300086F2300084B030008BA
:100070003D1500084B0300084B0300084B03000824
:100080004B0300084B0300084B0300084B03000818
:10009000351300084B0300084B03000879230008C0
:1000A0004B0300084B0300084B0300084B030008F8
:1000B0004B030008D1D000084B0300084B03000895
:1000C0004B0300084B0300084B0300084B030008D8
:1000D0004B0300080DDA00084B0300081DDA000886
:1000E0004B0300084B0300084B0300084B030008B8
:1000F0004B0300084B0300084B0300084B030008A8
:100100004B0300084B0300084B0300084B03000897
:100110004B0300084B030008E1D000084B03000824
:100120004B0300084D1500085D1500084B0300083F
:100130004B0300084B0300084B0300084B03000867
:10014000AD1300084B0300084B0300082199000879
:10015000F51D0008051E0008151E000841DA0008FC
:100160004B0300084B0300084B0300084B03000837
:100170004B0300084B0300084B030008000000007D
:100180004B0300084B03000800F002F800F060F891
:100190000AA090E8000C82448344AAF10107DA45E2
:1001A00001D100F055F8AFF2090EBAE80F0013F0D4
:1001B000010F18BFFB1A43F001031847007C010030
:1001C000207C01000A444FF0000C10F8013B13F0B2
:1001D000070408BF10F8014B1D1108BF10F8015BA0
:1001E000641E05D010F8016B641E01F8016BF9D193
:1001F00013F0080F1EBF10F8014BAD1C0C1B09D1EA
:100200006D1E58BF01F801CBFAD505E014F8016B5B
:1002100001F8016B6D1EF9D59142D6D370470000ED
:100220000023002400250026103A28BF78C1FBD8FF
:10023000520728BF30C148BF0B6070471FB516F08A
:10024000B3FC9DE8030000F0D3FA1FBD10B510BD4C
:1002500000F074FB1146FFF7F1FF12F05FFC00F0B5
:1002600092FB03B4FFF7F2FF03BC00F0C9FB0000F0
:100270002C4B19680868B0E8F04F80F30988BFF389
:100280006F8F4FF0000080F311887047000000006E
:1002900008480068006880F308884FF0000080F389
:1002A000148862B661B6BFF34F8FBFF36F8F00DF64
:1002B00000BF00BF08ED00E0DFF80C00016841F46A
:1002C00070010160704700BF88ED00E0EFF3098026
:1002D000BFF36F8F134B1A681EF0100F08BF20ED8D
:1002E000108A20E9F04F106009B44FF0500080F3FD
:1002F0001188BFF34F8FBFF36F8F14F073F84FF077
:10030000000080F3118809BC19680868B0E8F04F54
:100310001EF0100F08BFB0EC108A80F30988BFF3FD
:100320006F8F704730070020EFF3058070470000A3
:100330000948804709480047FEE7FEE7FEE7FEE779
:10034000FEE7FEE7FEE7FEE7FEE7FEE704480549B5
:10035000054A064B704700006DD00008890100086F
:1003600028AA002028EA002028CA002028CA002045
:1003700001804280436070472DE9F04F0288476852
:10038000B0F802804888D1F8049082B04FF0000A9B
:100390001646824207BF098888456FF0020002B006
:1003A00018BFBDE8F08F4FEA980B02EB42000190B6
:1003B000C8F34000CDF8000009EB8A01BBF1000F43
:1003C00033D0019801EB820C01EB80043B46E646FA
:1003D00001EBC2054FEA0B0093ED000A401E81EDD0
:1003E000000A93ED010A01EB02118CED000A93ED76
:1003F000020A0CEB021C85ED000A93ED030A05EBE3
:10040000021584ED000A04EB021403F11003E3D19A
:100410000EEB820000EB820000EB8201ABF10100E9
:10042000504307EB0B1701EB001118F0030C21D020
:100430003B1FA1EB82011CF0010F06D093ED010AD6
:1004400001EB82011B1D81ED000A009880B100BF05
:1004500093ED010A01EB820401EBC20184ED000A75
:1004600093ED020A401E81ED000A03F10803EFD16B
:1004700007EB8C070AF101001FFA80FA701E0604D0
:10048000360C99D102B00020BDE8F08F70B5064659
:1004900000F092F9056806F10B0020F00704B44261
:1004A0009CBF002070BD2B466A68BAB11068A0429C
:1004B00010D304F1080188423CBF5068586007D34C
:1004C0005168101941601168091B0160586014607F
:1004D000101D70BD13465268002AE7D121462846F8
:1004E00000F072F90028DED170BD70B50446051F1A
:1004F00000F062F90068002C14BF446870BD002C45
:1005000018BFAC423CBF20466468F8D301680A18A3
:10051000AA4218BF456003D12A680546114401600C
:1005200028684119A1421CBF6C6070BD6168696098
:1005300021680844286070BD53EA020C00F069800D
:100540002DE9F04B4FF00006002B1FBFB3FA83F5E7
:1005500003FA05F424FA05F65E4012BF1643B2FA18
:1005600082F502FA05F4C5F120051EBF22FA05FC4A
:1005700044EA0C04203556EA044C4FEA144418BFF0
:10058000641C4FF000084FF00009904271EB030C1F
:1005900039D3002919BFB1FA81F701FA07F6B0FA89
:1005A00080F700FA07F6C7F120071EBF20FA07FC04
:1005B00046EA0C062037B6FBF4FCA7EB0507103F14
:1005C00007F01F0BCBF120060CFA0BFB2CFA06F6FA
:1005D00044BFB3460026202FA4BF5E464FF0000B59
:1005E0005BEA060C08BF4FF0010B19EB0B09ABFBE4
:1005F000027C48EB0608C01B06FB02CC0BFB03CCBD
:1006000071EB0C01C1E70B46024641464846BDE886
:10061000F08B13B54FF000004FF00001AFF30080F6
:10062000BDE81C40704710B5431C02E010F8011BE8
:1006300071B18107FAD14FF0013202C88C1A8C4394
:1006400014EAC211F9D0C01A0A0603D0C01E10BDA8
:10065000C01A10BD0A0401D0801E10BD0902FCD0D2
:10066000401E10BD032A40F2308010F0030C00F051
:10067000158011F8013BBCF1020F624498BF11F8DC
:1006800001CB00F8013B38BF11F8013BA2F1040295
:1006900098BF00F801CB38BF00F8013B11F003030D
:1006A00000F02580083AC0F0088051F8043B083A71
:1006B00051F804CBA0E80810F5E7121D5CBF51F813
:1006C000043B40F8043BAFF30080D20724BF11F88D
:1006D000013B11F801CB48BF11F8012B24BF00F8F2
:1006E000013B00F801CB48BF00F8012B704710B563
:1006F000203AC0F00B80B1E81850203AA0E818501A
:10070000B1E81850A0E81850BFF4F5AF5FEA027CDA
:1007100024BFB1E81850A0E8185044BF18C918C049
:10072000BDE810405FEA827C24BF51F8043B40F8EA
:10073000043B08BF7047D20728BF31F8023B48BFCF
:1007400011F8012B28BF20F8023B48BF00F8012B0D
:10075000704702F0FF0343EA032242EA024200F03C
:100760008AB84FF0000200B51346944696462039E9
:1007700022BFA0E80C50A0E80C50B1F12001BFF45A
:10078000F7AF090728BFA0E80C5048BF0CC05DF8C0
:1007900004EB890028BF40F8042B08BF704748BF0E
:1007A00020F8022B11F0804F18BF00F8012B704782
:1007B000704770477047000000487047CCA9002080
:1007C000704770477047704738B504460A460020A6
:1007D0006946AFF30080002808BF38BD0246009983
:1007E000204600F071F8012038BD012000F09EB8CD
:1007F000F8B5AFF30080054600200C46102000BF7E
:100800000646A819A0420DD9324669460020AFF32A
:100810000080070008BF00F089F80098A04218BFC8
:100820000546C419FFF7C8FF05600746F01D20F014
:1008300007004619284600F00AF8B44208BFF8BD80
:10084000A21B31463868BDE8F84000F03DB80021F1
:100850000160C0E9011070471020704710B500F02A
:100860002FF8006810BD10B5044600F029F80460A8
:1008700010BD4FF000020429C0F0128010F0030CEC
:100880003FF471AFCCF1040CBCF1020F18BF00F8BB
:10089000012BA8BF20F8022BA1EB0C01FFF763BFCF
:1008A0005FEAC17C24BF00F8012B00F8012B48BF90
:1008B00000F8012B7047000000487047C4A90020D1
:1008C00000487047C4A90020034640688C460028B1
:1008D00018BF88423CBF03464068F8D318681844E4
:1008E000884207D00CF1030020F00700001D411AD8
:1008F000521A0146081D0A60FFF7F7BD1FB584B004
:1009000000200A9C06AB04AA02A90094AFF3008061
:1009100018B1DDE9020108B010BD0348204000F025
:1009200040F800200146F6E70000207C10B500F0FA
:100930003FF8BDE8104000F02FB870477546FFF74C
:10094000BBFFAE4605006946534620F007008546CA
:1009500018B020B5FFF7FAFCBDE820404FF00006C4
:100960004FF000074FF000084FF0000B21F0070197
:10097000AC46ACE8C009ACE8C009ACE8C009ACE8DA
:10098000C0098D46704710B50446AFF3008020467D
:10099000BDE81040FFF765BC002801D000F030B87A
:1009A000704710B500F04CF8BDE81040FFF7F4BFF9
:1009B00010B5012805D0002103A000F027F8012080
:1009C00010BD09A1F8E7000053494752544D454D69
:1009D0003A204F7574206F662068656170206D65E0
:1009E0006D6F7279000000003A2048656170206DDB
:1009F000656D6F727920636F7272757074656400D3
:100A000001491820ABBEFEE72600020070B505467E
:100A10000C460A2000E06D1C00F068F835B128781B
:100A20000028F8D102E0641C00F060F814B12078CE
:100A30000028F8D1BDE870400A2000F057B8000047
:100A400010B5022803D0410103D50DA112E000200A
:100A500010BD010101D50FA10CE0C10001D511A10C
:100A600008E0810001D512A104E0400001D513A1E6
:100A700000E0002115A0FFF7C9FF012010BD000014
:100A8000496E76616C6964204F7065726174696F3C
:100A90006E000000446976696465204279205A65D9
:100AA000726F00004F766572666C6F770000000011
:100AB000556E646572666C6F77000000496E6578EC
:100AC00061637420526573756C7400005349474626
:100AD00050453A2041726974686D65746963206598
:100AE0007863657074696F6E3A20000008B56946D6
:100AF0008DF800000320ABBE08BD000055494A68D0
:100B000022F440324A604A6843681A434A600268E5
:100B1000526822F4807203685A600268536802695E
:100B200043EA022203685A600268526822F0407267
:100B300003685A600268526883681A4303685A60FF
:100B40000268926822F4006203689A600268926800
:100B5000C3681A4303689A603F4B826A9A4218D06E
:100B60000268926822F0706203689A600268926874
:100B7000836A1A4303689A600268926822F04052BE
:100B800003689A6002689268C36A1A4303689A60AD
:100B90000BE00268926822F0706203689A60026853
:100BA000926822F0405203689A600268926822F0CC
:100BB000020203689A6002689368027E43EA420276
:100BC00003689A602022125CA2B10268526842F463
:100BD000006203685A600268526822F46042036847
:100BE0005A6002685368426A521E43EA42320368FE
:100BF0005A6005E00268526822F4006203685A6095
:100C00000268D26A22F470020368DA620268D36A68
:100C1000828B521E43EA02520368DA6202689268CB
:100C200022F4007203689A600268936890F830209A
:100C300043EA422203689A600268926822F4806262
:100C400003689A6002689368426943EA82220368F3
:100C50009A607047002301400100000FB7EE000AC0
:100C600080ED000A9FED060A80ED010A9FED040A5F
:100C700080ED020A9FED020A80ED030A7047000032
:100C8000000000002DE9F0412DED028B0746B0EE8B
:100C9000408A0C4615461E46D6ED024AB0EE644A1E
:100CA000D6ED014AF0EE643AD6ED004AB0EE643A71
:100CB000D5ED024AF0EE642AD5ED014AB0EE642A81
:100CC000D5ED004AF0EE641AD4ED024AB0EE641A93
:100CD000D4ED014AF0EE640AD4ED004AB0EE640AA5
:100CE000384608F069F8BDEC028BBDE8F0810000E1
:100CF00010B501221021024803F02EFA10BD0000A9
:100D00000000024010B500221021024803F024FA2E
:100D100010BD0000000002407047000010B5012225
:100D20001146024803F018FA10BD0000000402400A
:100D300010B500220121024803F00EFA10BD000098
:100D40000004024010B543781B021BB20478234311
:100D500000EE103AB8EEC01A1C4BD3ED001A21EE8B
:100D6000211A81ED001AC3781B021BB28478234339
:100D700000EE103AB8EEC01A144BD3ED001A21EE73
:100D8000211A81ED011A43791B021BB20479234316
:100D900000EE103AB8EEC01A0C4BD3ED001A21EE5B
:100DA000211A81ED021A037A1B04C47943EA042351
:100DB0008479234300EE903AB8EE601ADFED041A0E
:100DC00021EE211A82ED001A10BD0000A8050020B6
:100DD00000401C42704710B50446204612F092F8BD
:100DE00010BD10B50446204611F01CF910BD0000DE
:100DF0004278120212B203781A4300EE102AF8EE7B
:100E0000C00A144A92ED001A60EE810AC1ED000A90
:100E1000C278120212B283781A4300EE102AF8EE5A
:100E2000C00A0C4A92ED001A60EE810AC1ED010A77
:100E30004279120212B203791A4300EE102AF8EE38
:100E4000C00A044A92ED001A60EE810AC1ED020A5E
:100E500070470000AC05002010B50024FFF75CFFD0
:100E6000FFF7B8FF10F0A0FC10B144F0800402E0DE
:100E700010F000FC044310F08FFE10B144F0400469
:100E800002E010F00FFE0443204610BD2DE9FC41A6
:100E900005460E461746002000900190FFF732FFEE
:100EA000922000F0D1F806226946122000F0ACF83A
:100EB000FFF71EFF9DF80100000200B29DF8001030
:100EC00040EA010400EE104AB8EEC00A4C48D0EDEA
:100ED000000A20EE200A86ED000A9DF803000002B9
:100EE00000B29DF8021040EA010400EE104AB8EE8C
:100EF000C00A4348D0ED000A20EE200A86ED010A20
:100F00009DF80500000200B29DF8041040EA0104BB
:100F100000EE104AB8EEC00A3948D0ED000A20EEC3
:100F2000200A86ED020AFFF703FF08226946002027
:100F300000F06AF8FFF7F2FE9DF800000F2838D1A4
:100F40009DF80300000200B29DF8021040EA01047F
:100F500000EE104AB8EEC00A2A48D0ED000A20EE92
:100F6000200A85ED000A9DF80500000200B29DF8F8
:100F7000041040EA010400EE104AB8EEC00A21480D
:100F8000D0ED000A20EE200A85ED010A9DF8070049
:100F9000000200B29DF8061040EA010400EE104A7B
:100FA000B8EEC00A1748D0ED000A20EE200A85ED01
:100FB000020AFFF7A7FEA22000F046F802226946C7
:100FC000222000F021F8FFF793FE9DF80000C000FA
:100FD0009DF8011040EA6114B4F5806F02DBA4F5BE
:100FE000006004B200EE104AF8EEC00AB4EE001A37
:100FF000B3EE070A00EE810A87ED000ABDE8FC8126
:10100000A8050020AC05002070B506460C46154624
:1010100046F0800000F018F806E0552000F014F8C3
:101020002070641C681EC5B2002DF6D170BD70B56D
:1010300004460D4644F0800000F006F8552000F00C
:1010400003F8287070BD000001B582B04FF47A70CB
:10105000012301AA02A90090024805F0AEF89DF80C
:1010600004000EBDF826002010B502461378DB0000
:10107000547843EA6410B0F5806F02DBA0F500639A
:1010800018B200EE100AF8EEC00AB4EE001AB3EE81
:10109000070A00EE810A81ED000A10BD70B5054611
:1010A0000C462846FFF7D0FF2046FFF7CDFF70BD66
:1010B00000BFFEE710B50821054805F027FD002018
:1010C00004490870488008728880C88010BD0000FC
:1010D000A8280020884500204748007820B1012832
:1010E00009D0022848D13FE0002043494880888049
:1010F0000872C88079E040488088401C3E4988805A
:101100000846C088012801D1002008703A49898822
:101110004FF4967291FBF2F000EBD0714910A0EB06
:10112000410139B93449097A21B9872032494880C7
:1011300001200872304989884FF4967291FBF2F0D1
:1011400000EBD0714910A0EB410101290BD12A49D4
:10115000097A012907D100202749488008720846EA
:10116000C088401CC88040E00120234948800020FE
:1011700088800872C88038E01F488088401C1E495B
:1011800088800846C088032801D1002008701A49C9
:1011900089884FF4967291FBF2F000EBD071491000
:1011A000A0EB410139B91449097A21B987201249C4
:1011B000488001200872104989884FF4967291FB8B
:1011C000F2F000EBD0714910A0EB410101290BD1E5
:1011D0000949097A012907D1002007494880087286
:1011E0000846C088401CC88000BF00BF0248408835
:1011F00002490968C863704788450020A828002074
:1012000010B500F00FF8064802F005FB044800682E
:10121000406940F0020002490968486110BD0000C1
:101220005426002000B58BB000200A90069007904D
:1012300001200890002001900290039004900590F6
:101240000120099001A9024801F0ACFE0BB000BDDD
:10125000542600208EB000BF4FF0FF3205A934485D
:10126000006813F0F5FB0446012CF5D10598B0F5A4
:10127000017F08D1142209A96846FFF738FA05A8AA
:101280000FC806F071FD40F203210598884208D18D
:10129000142209A96846FFF72AFA05A80FC806F024
:1012A00063FD40F202210598884208D1142209A961
:1012B0006846FFF71CFA05A80FC806F0B7FC40F215
:1012C00005210598884208D1142209A96846FFF72C
:1012D0000EFA05A80FC801F099FA40F20621059808
:1012E000884208D1142209A96846FFF700FA05A828
:1012F0000FC801F0EBF940F207210598884208D1A8
:10130000142209A96846FFF7F2F905A80FC801F0F1
:101310007DFA0598B0F5027F9ED1142209A968468E
:10132000FFF7E5F905A80FC801F0D0F994E7000030
:101330001005002010B504480068401C02490860F0
:10134000024801F07FFF10BDE0030020542600207A
:1013500010B500F011F8074802F05DFA08B100BFBF
:10136000FEE704480068406940F00200014909684E
:10137000486110BD7C26002000B58BB00E200A907D
:101380000690002007900120089000200190029014
:101390000390049005900120099001A9024801F0F2
:1013A00001FE0BB000BD00007C26002010B50448F3
:1013B0000068401C02490860024801F043FF10BD6C
:1013C000E80300207C2600202DE9F84381460E46E4
:1013D00015461F4600201549C8600846866080688B
:1013E00010B90846056005E010488068042801D15E
:1013F0000E48456008200D49086100200875084620
:10140000D0F81080002405E0395D084818300155F7
:10141000601CC4B24445F7D36B46044A18320349F2
:10142000484601F013FDBDE8F88300006845002040
:101430000346042B15D007DC7BB1012B0ED0022B09
:101440000DD0032B12D10BE0202B0BD0212B0AD077
:10145000222B09D0232B09D107E008E007E006E0A2
:1014600005E004E003E002E001E000E000BF00BFAF
:10147000002070470020704710B50022044905483D
:101480000CF084FC044903480CF079FC002010BDEA
:10149000E03C0020082C0020E034002070B5044619
:1014A0000D46214603480CF06AFC02480CF042FC51
:1014B000002070BD082C002010B503460C4600210A
:1014C000084610BD8EB000BF00BF4FF0FF3205A927
:1014D0000E48006813F0BCFA0446012CF5D10C4804
:1014E0000068401C0A4908600A480068401C094915
:1014F000086005989628E8D1142209A96846FFF7E4
:10150000F6F805A80FC806F099F8DEE714050020E4
:10151000A4040020E403002010B50246002004E0EB
:1015200012F8013B4340044CE05C0B1EA1F10104A6
:10153000A1B2F5D110BD0000286E010810B5024817
:1015400002F0B4F910BD0000E82A002010B50248EE
:1015500002F0ACF910BD0000482B002010B5FE4889
:10156000C06C0068FD49884276D9FC485438006850
:10157000F949C96C0968FA4A914201D1202169E010
:10158000F549C96C0968F54A483A914201D12021D0
:1015900060E0F149C96C0968F14A6032914201D1B9
:1015A000202157E0EC49C96C0968EC4A1832914295
:1015B00001D120214EE0E849C96C0968E84A183297
:1015C000914201D1C91445E0E349C96C0968E34A75
:1015D000303A914201D1C9143CE0DF49C96C096835
:1015E000DF4A7832914201D1C91433E0DA49C96C3B
:1015F0000968DA4A3032914201D1C9142AE0D64949
:10160000C96C0968D64A3032914202D14FF40011B8
:1016100020E0D149C96C0968D04A183A914202D1F8
:101620004FF4001116E0CC49C96C0968CC4A9032DD
:10163000914202D14FF400110CE0C749C96C09680E
:10164000C64A4832914203D14FF4001102E003E050
:101650004FF00061084070E1BF48C06C0068C049AD
:10166000A831884276D9BD4858380068BA49C96C53
:101670000968BB4A914201D1202169E0B649C96C91
:101680000968B64A483A914201D1202160E0B24946
:10169000C96C0968B24A6032914201D1202157E0F9
:1016A000AD49C96C0968AD4A1832914201D1202177
:1016B0004EE0A949C96C0968A94A1832914201D182
:1016C000C91445E0A449C96C0968A44A303A91425A
:1016D00001D1C9143CE0A049C96C0968A04A78321C
:1016E000914201D1C91433E09B49C96C09689B4AF6
:1016F0003032914201D1C9142AE09749C96C096876
:10170000974A3032914202D14FF4001120E09249C1
:10171000C96C0968914A183A914202D14FF40011FC
:1017200016E08D49C96C09688D4A9032914202D108
:101730004FF400110CE08849C96C0968874A4832A7
:10174000914203D14FF4001102E003E04FF0006139
:101750000840F2E08048C06C006881494831884206
:1017600076D97F48103840687B49C96C09687C4A43
:10177000914201D1202169E07749C96C0968774A13
:10178000483A914201D1202160E07349C96C09684F
:10179000734A6032914201D1202157E06E49C96CF1
:1017A00009686E4A1832914201D120214EE06A49FF
:1017B000C96C09686A4A1832914201D1C91445E0DE
:1017C0006549C96C0968654A303A914201D1C9142A
:1017D0003CE06149C96C0968614A7832914201D1A3
:1017E000C91433E05C49C96C09685C4A30329142E3
:1017F00001D1C9142AE05849C96C0968584A3032E5
:10180000914202D14FF4001120E05349C96C09689C
:10181000524A183A914202D14FF4001116E04E4953
:10182000C96C09684E4A9032914202D14FF40011BE
:101830000CE04949C96C0968484A4832914203D1D1
:101840004FF4001102E003E04FF00061084074E043
:101850004348103800684049C96C0968404A9142C1
:1018600001D1202168E03C49C96C09683B4A483AEB
:10187000914201D120215FE03749C96C0968384A9B
:101880006032914201D1202156E03349C96C096888
:10189000324A1832914201D120214DE02E49C96CC3
:1018A00009682F4A1832914201D1C91444E02A49EB
:1018B000C96C0968294A303A914201D1C9143BE008
:1018C0002549C96C0968264A7832914201D1C91468
:1018D00032E02149C96C0968204A3032914201D175
:1018E000C91429E01C49C96C09681D4A303291426B
:1018F00002D14FF400111FE01749C96C0968174A5B
:10190000183A914202D14FF4001115E01249C96C06
:101910000968134A9032914202D14FF400110BE052
:101920000D49C96C09680D4A4832914202D14FF401
:10193000001101E04FF00061084000286FD0064818
:10194000C06C0068054988427BD90348C06C0068B8
:101950000349884208D105E0F82600205864024077
:1019600010600240202068E0FE48C06C0068FE491C
:10197000884201D1202060E0FA48C06C0068FB4931
:10198000884201D1202058E0F648C06C0068F64932
:101990006031884201D120204FE0F248C06C0068DD
:1019A000F2494839884201D1C01446E0ED48C06C84
:1019B0000068ED491831884201D1C0143DE0E94882
:1019C000C06C0068E9491831884201D1C01434E084
:1019D000E448C06C0068E4497831884201D1C01401
:1019E0002BE0E048C06C0068E0493039884202D101
:1019F0004FF4001021E0DB48C06C0068DA49303158
:101A0000884202D14FF4001017E0D648C06C00683D
:101A1000D6493031884204D14FF400100DE0DFE1A7
:101A20000FE0D048C06C0068CF499031884202D1A5
:101A30004FF4001001E04FF00060CB49091F08602F
:101A40006AE1C848C06C0068C8494831884274D906
:101A5000C448C06C0068C5496039884201D1202063
:101A600066E0C048C06C0068BF49884201D12020B0
:101A70005EE0BC48C06C0068BC49884201D12020AF
:101A800056E0B848C06C0068B7496031884201D15F
:101A900020204DE0B348C06C0068B4494839884202
:101AA00001D1C01444E0AF48C06C0068AE491831A1
:101AB000884201D1C0143BE0AA48C06C0068AB4921
:101AC0001831884201D1C01432E0A648C06C0068C9
:101AD000A5497831884201D1C01429E0A148C06CE1
:101AE0000068A2493039884202D14FF400101FE04B
:101AF0009C48C06C00689C493031884202D14FF448
:101B0000001015E09748C06C006898493031884251
:101B100002D14FF400100BE09248C06C006892496B
:101B20009031884202D14FF4001001E04FF0006084
:101B30008D4908390860EFE0FFE78A48C06C00680B
:101B40008A491839884274D98648C06C0068874928
:101B50006039884201D1202066E08248C06C00686C
:101B60008149884201D120205EE07E48C06C006837
:101B70007E49884201D1202056E07A48C06C006836
:101B800079496031884201D120204DE07548C06C10
:101B9000006876494839884201D1C01444E0714850
:101BA000C06C006870491831884201D1C0143BE014
:101BB0006C48C06C00686D491831884201D1C0146E
:101BC00032E06848C06C006867497831884201D1CA
:101BD000C01429E06348C06C006864493039884209
:101BE00002D14FF400101FE05E48C06C00685E49EF
:101BF0003031884202D14FF4001015E05948C06CD2
:101C000000685A493031884202D14FF400100BE08D
:101C10005448C06C006854499031884202D14FF456
:101C2000001001E04FF0006050497039C86073E067
:101C3000FFE74C48C06C00684C496039884201D1CC
:101C4000202066E04748C06C00684749884201D1BF
:101C500020205EE04348C06C00684449884201D1BE
:101C6000202056E03F48C06C00683F496031884200
:101C700001D120204DE03B48C06C00683B49483909
:101C8000884201D1C01444E03648C06C006836492F
:101C90001831884201D1C0143BE03248C06C006862
:101CA00032491831884201D1C01432E02D48C06C4D
:101CB00000682D497831884201D1C01429E02948B3
:101CC000C06C006829493039884202D14FF40010B5
:101CD0001FE02448C06C006823493031884202D19B
:101CE0004FF4001015E01F48C06C00681F493031E8
:101CF000884202D14FF400100BE01A48C06C006813
:101D000019499031884202D14FF4001001E04FF0A0
:101D100000601649703988601548007800F00200AC
:101D200078B11348007820F0020011490870084685
:101D3000007840F004000870012211460D4802F0BE
:101D40000BFA0D48007800F00200E0B10A48007874
:101D500020F00200084908700846007840F00400AE
:101D600008700BE0F826002010640240706002400A
:101D70005D060020000402405E06002001221021C2
:101D8000184802F0E9F91848007800F0020078B12C
:101D90001548007820F002001349087008460078C2
:101DA00040F004000870012210210E4802F0D4F91E
:101DB00010F0F6FB0D48007800F0040080B10B48ED
:101DC000007820F00400094908700846007840F0C7
:101DD000080008700648006840F0010004490860E7
:101DE00010BD0000000002405F0600205D060020DC
:101DF000103C014010B5024801F058FD10BD000034
:101E0000882A002010B5024801F050FD10BD0000E6
:101E1000A82B002010B5024801F048FD10BD0000BD
:101E2000282A00200146087810381823B0FBF3F266
:101E30000848805CC865032A05D908686FF3090063
:101E4000001D886503E008686FF309008865886DE8
:101E5000704700002B7C0108014600208A6A8B69CC
:101E6000CBB932B1012A0DD0022A03D0032A10D1F6
:101E70000EE000BFCB6A03F08073B3F1807F00D126
:101E8000012007E0CB6AB3F1C07F00D1012001E05F
:101E900000E000BF34E08B69B3F5005F1AD132B1C6
:101EA000012A07D0022A03D0032A11D10AE000BF79
:101EB00001200EE0CB6A03F08073B3F1807F00D184
:101EC000012006E0CB6AB3F1C07F00D1012000E021
:101ED00000BF15E032B1012A05D0022A04D0032A3E
:101EE0000CD103E000BF00BF012008E0CB6A03F083
:101EF0008073B3F1807F00D1012000E000BF00BFFC
:101F0000704730B50468246824F4802405682C6088
:101F1000046863608468402C04D10468A26004688B
:101F2000E16003E00468A1600468E26030BD000085
:101F300000B970470178427841EA0221C1F30A01F1
:101F4000704A118011460988A1F5806109B211809B
:101F50004178C910827841EA4211C1F30A01694A05
:101F6000518011464988A1F5806109B2518081787C
:101F70008911C27841EA8201027941EA8221C1F3E2
:101F80000A01604A918011468988A1F5806109B2F1
:101F9000918001794910427941EAC211C1F30A01E5
:101FA000584AD1801146C988A1F5806109B2D18013
:101FB00041790911890811724179C1F301115172F6
:101FC0008179C27941EA022109B24E4A9181017AAE
:101FD000427A41EA02210AB24A49CA81817AC27A26
:101FE00041EA02210AB247490A82027B8A74427B93
:101FF000CA74817BC27B41EA0221424A9182017C00
:10200000427C41EA0221C1F30A013E4A5181114654
:102010004989A1F5806109B251811146B1F90A10CF
:10202000394A12681144384A11603649C98A491C34
:10203000344AD1821146B1F90010052907DC114656
:10204000B1F9001011F1050F01DB002111802D49BC
:10205000B1F90210052908DC2A49B1F9021011F181
:10206000050F02DB0021274A51802649B1F90410EF
:10207000142908DC2349B1F9041011F1140F02DB13
:102080000021204A91801F49B1F90610142908DC6B
:102090001C49B1F9061011F1140F02DB0021194A95
:1020A000D1801849B1F90A10142908DC1549B1F991
:1020B0000A1011F1140F02DB0021124A518111495B
:1020C000B1F90010114A12681144104A11600D490B
:1020D000B1F902100E4A126811440D4A1160094903
:1020E000B1F904100B4A126811440A4A11600549FB
:1020F000B1F90610084A12681144074A116000BF7E
:1021000017E700009602002094040020EC03002052
:10211000F4030020F8030020FC03002038B5044637
:102120002068006800F0100010282DD12068C068D9
:1021300000F0100040B300BF00200090206800684D
:10214000009020684068009000BF00BF606B00688E
:10215000006820F00100616B09680860606B00682E
:102160004068042804D10948D0F819100848884765
:102170001620616B09684860606B0068006840F079
:102180000100616B0968086038BD000096020020FC
:10219000C61900201CB5002461A103C9CDE90001C6
:1021A0000026002500BF641C5F49A1F1080000F073
:1021B000CFFB00BF07F058FA5C48407A022803D0F2
:1021C0005A48407A00B100BF642094FBF0F100FB54
:1021D0001140002826D1701C86B2012E0AD1612040
:1021E0005349087039204870382088703720C870EB
:1021F00062200871022E0BD163204D4908703120F6
:102200004870322088703320C8706420087100261E
:10221000002505E04648405D46494855681C85B2A2
:10222000052DF7DB4148007A012822D14248007889
:10223000012807D14148007820B941480068401C76
:102240003F4908603E480068002804DD3C480068BB
:10225000401C3B4908603A480068B0F5C86F02DD91
:102260000020374908603448007810B9002034490C
:1022700008603148007831490870642094FBF0F11F
:1022800000FB1140E0B92F4890ED000AF3EE050A7B
:10229000B4EEE00AF1EE10FA12D290ED000AF3EE7D
:1022A000040AB4EEE00AF1EE10FA09DD41F28830DA
:1022B00094FBF0F100FB114010B901202249087095
:1022C00022480068401C2149086021480068401CE1
:1022D0001F4908601F4800780009E8B91D480078C8
:1022E00000F00F0028B11B48007800F00F00012813
:1022F00012D10020164908601648007800F00F003F
:10230000012802D10020114908601248007820F00D
:10231000F000A0300F490870012010F0F3FD42E7F3
:102320006572726F72000000D012002096020020C9
:102330003505002030050020B5040020B60400203B
:10234000C0040020BC04002088450020D0040020E8
:10235000CC04002084020020704710B5012001F059
:10236000E5FD10BD10B5082001F0E0FD10BD10B571
:10237000102001F0DBFD10BD10B5202001F0D6FDCE
:1023800010BD704710B5002201B909E0012901D143
:102390000A0205E0022901D10A0201E04FF440726D
:1023A0000E4B1B6823F440730C4C236023461B68C0
:1023B0001343236023461B6823F0F803236023465E
:1023C0001B68022444EAC0042343044C23602346D0
:1023D0001B6843F48033236010BD0000103C0240B2
:1023E0001C48006800F40070B0B11A48006820F47E
:1023F00000701849086000BF0846006840F400609B
:1024000008600846006820F40060086000BF0846C5
:10241000006840F4007008600E48006800F48060B6
:10242000B0B10C48006820F480600A49086000BF21
:102430000846006840F4805008600846006820F4B0
:102440008050086000BF0846006840F48060086063
:1024500070470000003C02400A4A126822F44072B1
:10246000084B1A601A46126842F004021A601A46B3
:1024700012684FF4803343EA00231A43014B1A6079
:1024800070470000103C0240074A126822F4407274
:10249000054B1A601A4612681A601A46126842F012
:1024A00001021A6001707047103C024010B50D49DE
:1024B000096821F440710B4C21602146096841F400
:1024C000407121602146096841F0010121600260EC
:1024D00000BF00BF00BFBFF36F8F00BF00BF00BFD2
:1024E000436010BD103C0240084A126822F440725A
:1024F000064B1A601A46126842F480721A601A4635
:10250000126842F001021A6001807047103C0240DC
:10251000084A126822F44072064B1A601A46126882
:1025200042F400721A601A46126842F001021A6000
:1025300001607047103C02402348006800F0100022
:1025400040B12248C06940F010002049C861102005
:102550001D4908601C48006800F0200040B11B487D
:10256000C06940F008001949C86120201649086078
:102570001548006800F0400040B11448C06940F0C0
:1025800004001249C86140200F4908600E480068E5
:1025900000F0800040B10D48C06940F002000B49D6
:1025A000C8618020084908600748006800F0020000
:1025B00040B10648C06940F020000449C8610220CB
:1025C00001490860704700000C3C0240644700204D
:1025D00070B50446002500201449C86101F0C2FD11
:1025E000054609E0601C38B124B101F0BBFD401B79
:1025F000A04201D9032070BD0D48006800F480306E
:102600000028EFD10A48006800F0010010B1012055
:10261000074908600648006800F0F20018B1FFF7AB
:102620008BFF0120E7E70020E5E70000644700207A
:102630000C3C024010B52DED068B0446204613F0ED
:10264000AFFB41EC1A0B53EC1A2B9FED0A0B51EC2C
:10265000100B13F0F1F841EC190B9FED080B53EC44
:10266000102B13F0EDFB41EC180B13F007FBBDEC46
:10267000068B10BD000000000000F03F00000000CD
:1026800000408F40B7EE001A80ED021AB7EE001A34
:1026900080ED071A90ED071A80ED0C1AC0ED0D0AB7
:1026A00090ED021A80ED0F1A80ED100A9FED061AC8
:1026B00080ED051AB7EE001A80ED0B1AB7EE001A7E
:1026C00080ED131A70470000000000000FB400995D
:1026D000A1F205209DF81D109DF81C2041EA022161
:1026E00000EBC002484B23F822109DF81F209DF8F4
:1026F0001E1042EA012109B200EBC00203EB820284
:10270000518000EBC0011A4602EB8101B1F90210C1
:1027100000EE101AB8EEC00A00EBC00102EB810116
:1027200081ED010A9DF821209DF8201042EA012147
:1027300009B200EBC00203EB820211819DF8221066
:1027400000EBC00203EB8202917200EBC0011A465B
:1027500032F8211000EBC00203EB8202B2F9122022
:10276000891A11F5E15F0BDA00EBC0011A4602EBA2
:1027700081014969491C00EBC00203EB82025161EF
:1027800000EBC001204A02EB8101B1F9121000EB0D
:10279000C0021D4B33F82220891A11F5E15F0BDAD4
:1027A00000EBC0011A4602EB81014969491E00EBAA
:1027B000C00203EB8202516100EBC001124A32F801
:1027C000211000EBC002104B03EB820252694FF460
:1027D000005303FB021100EE101AB8EEC00A00EB22
:1027E000C001094A02EB810181ED060A00EBC0013C
:1027F00032F8211009B200EBC002034B03EB820256
:10280000518204B070470000301A00200FB40099C4
:10281000A1F205209DF81D109DF81C2041EA02211F
:1028200000EBC002484B23F822109DF81F209DF8B2
:102830001E1042EA012109B200EBC00203EB820242
:10284000518000EBC0011A4602EB8101B1F9021080
:1028500000EE101AB8EEC00A00EBC00102EB8101D5
:1028600081ED010A9DF821209DF8201042EA012106
:1028700009B200EBC00203EB820211819DF8221025
:1028800000EBC00203EB8202917200EBC0011A461A
:1028900032F8211000EBC00203EB8202B2F91220E1
:1028A000891A2A4A91420BDA00EBC0011A4602EB60
:1028B00081014969491C00EBC00203EB82025161AE
:1028C00000EBC001204A02EB8101B1F9121000EBCC
:1028D000C0021D4B33F82220891A1C4A91420BDAA0
:1028E00000EBC0011A4602EB81014969491E00EB69
:1028F000C00203EB8202516100EBC001124A32F8C0
:10290000211000EBC002104B03EB820252694FF41E
:10291000005303FB021100EE101AB8EEC00A00EBE0
:10292000C001094A02EB810181ED060A00EBC001FA
:1029300032F8211009B200EBC002034B03EB820214
:10294000518204B070470000301A00209CE6FFFF5F
:1029500070B504460D4612F075FA2060D4E90012F5
:10296000881AFFF767FE28602068606070BD00006D
:1029700070B50A480468001D0568001D06683444E7
:1029800054B108220649204605F006F904220449FC
:102990001031284605F000F970BD0000107AFF1FC5
:1029A0007A05002038B502460020009000BF92F85A
:1029B0003C00012801D1022038BD012082F83C00F2
:1029C00000BF0868092816D91068C0680C780A3C4E
:1029D00004EB44050724AC40A0431468E0600C7885
:1029E0000A3C04EB44048868A0401468E46820436F
:1029F0001468E06013E0106800690C7804EB44058B
:102A00000724AC40A043146820610C7804EB440414
:102A10008868A040146824692043146820614868CD
:102A2000072817D21068406B0C79641E04EB8405EC
:102A30001F24AC40A04314686063088880B20C79FE
:102A4000641E04EB8404A0401468646B2043146883
:102A5000606331E048680D2817D21068006B0C796C
:102A6000E41F04EB84051F24AC40A04314682063DA
:102A7000088880B20C79E41F04EB8404A040146839
:102A8000246B20431468206316E01068C06A0C7938
:102A90000D3C04EB84051F24AC40A0431468E062A5
:102AA000088880B20C790D3C04EB8404A0401468C3
:102AB000E46A20431468E062194B1A4C1068A04283
:102AC00006D10868122803D1586840F48000586085
:102AD000144C1068A0421CD10868102802D0086865
:102AE000112816D1586840F4000058600868102872
:102AF0000FD10D4800680D4CB0FBF4F000EB8000E6
:102B00004000009002E00098401E009000980028CD
:102B1000F9D100BF002082F83C0000BF00BF4BE7A6
:102B200000230140002001402007002040420F0008
:102B300001460868C06C704770B5044600250CB9A2
:102B4000012070BD1549A06A884200D000BF206CEA
:102B500030B9204600F024F80020606484F83C007E
:102B6000206C00F0100088B9206C20F4885040F0F0
:102B7000020020642046FDF7C1FF00206064206C45
:102B800020F0020040F00100206400E0012500BFB9
:102B9000002084F83C0000BF2846D2E70100000F67
:102BA00010B586B00446142101A8FDF7DAFD2349CB
:102BB000206888420FD100BF0020009020480068A4
:102BC00040F480701E4908600846006800F4807078
:102BD000009000BF2FE01B49206888422BD100BF26
:102BE000002000901648006840F480601449086096
:102BF0000846006800F48060009000BF00BF00BF7E
:102C0000002000900E481438006840F020000C4965
:102C1000143908600846006800F02000009000BFEA
:102C200000BF08150190032002900020039001A925
:102C3000054801F089F906B010BD000000200140F0
:102C400044380240002201400014024070B504469E
:102C50000D4600262068806800F48060B0F5806F23
:102C600011D12068806800F48070B0F5807F0AD1AF
:102C7000206C40F02000206400BF002084F83C005D
:102C800000BF012070BD01F06DFA064612E0681C1D
:102C900080B125B101F066FA801BA8420AD9206CE8
:102CA00040F00400206400BF002084F83C0000BF16
:102CB0000320E7E72068006800F002000228E6D160
:102CC0006FF0120021680860206C40F400702064EE
:102CD0002068806800F04050B8B9207EA8B920680C
:102CE000C06A00F4700020B12068806800F4806041
:102CF00058B9206C20F480702064206C00F480505F
:102D000018B9206C40F0010020640020BAE70000F0
:102D100008B501460020009000BF91F83C00012852
:102D200001D1022008BD012081F83C0000BF0868E5
:102D3000806800F00100A0B90868806840F00100D8
:102D40000B6898603B4800683B4BB0FBF3F000EB2E
:102D50004000009002E00098401E0090009800287B
:102D6000F9D10868806800F0010000285FD0086C85
:102D700040F20163984340F480700864086840683A
:102D800000F4806028B1086C20F4005040F48050BA
:102D90000864086C00F48050B0F5805F04D1486C82
:102DA00020F00600486401E00020486400BF0020D5
:102DB00081F83C0000BF214A6FF022000B681860C8
:102DC000506800F01F0018BB1D4B0868984213D0D4
:102DD0001C4B0868984204D1101D006800F01F00C9
:102DE00050B1194B0868984221D11448001D006861
:102DF00000F01F0010281AD20868806800F04050C8
:102E000028B90868806840F080400B6898600EE040
:102E10000B4B086898420AD10868806800F040505F
:102E200028B90868806840F080400B6898600020EE
:102E300078E700002007002040420F0000230140F7
:102E4000002001400021014000220140F0B504466D
:102E50000D461E4694F8207020688368A86800B963
:102E600000E000BF012F01D0022F7CD103F0806071
:102E700030B903F0006018B903F08050002873D017
:102E8000C3F30161022905D9606A40F40000606261
:102E90000120F0BD012088403060A86860B9B5F815
:102EA00000C0E86840EA4C5C206800F5C07000EBA8
:102EB0000110C0F800C00FE0D5E901C040EACC0025
:102EC000D5F80CC040EA0C00D4F800C00CF5C07C6A
:102ED0000CEB011CCCF80000D5F810C0206800F500
:102EE000C07000EB0110C0F804C0287D01280ED18D
:102EF000206800F5C07000EB0110406840F4807C51
:102F0000206800F5C07000EB0110C0F804C0D07953
:102F1000000692F806C040EA0C4092F805C040EA6C
:102F20000C2C10794CEA000C206800F5C07000EB06
:102F30000110C0F80CC0D078000692F802C040EA38
:102F40000C4092F801C040EA0C2092F800C040EA20
:102F50000C00D4F800C00CF5C07C0CEB011CCCF8C4
:102F60000800206801E016E00FE000F5C07000EBFB
:102F70000110006840F0010C206800F5C07000EB03
:102F80000110C0F800C0002083E7606A40F4001020
:102F9000606201207DE7606A40F480206062012069
:102FA00077E70000F0B504460A46216894F82050FF
:102FB000012D01D0022D7ED1424901F50071086832
:102FC00040F001000860086820F47C500860086840
:102FD000566A40EA06200860107D00F01F060120B6
:102FE00000FA06F3C8699843C861A1F50071D06979
:102FF000C8B9D1F80C029843C1F80C02908880B28D
:10300000968940EA064601F51070576940F8376026
:10301000108880B2168940EA064601F5107057699B
:1030200000EBC7004660D069012819D1D1F80C0225
:103030001843C1F80C02908880B2168840EA064610
:1030400001F51070576940F83760908980B2168991
:1030500040EA064601F51070576900EBC70046606C
:10306000906928B9D1F804029843C1F8040204E039
:10307000D1F804021843C1F80402106928B9D1F844
:1030800014029843C1F8140204E0D1F81402184362
:10309000C1F81402106A012804D1D1F81C021843A7
:1030A000C1F81C02D1F8000220F00100C1F80002B2
:1030B0000020F0BDFFE7606A40F4802060620120DC
:1030C000F7E7000000640040704770B5044694F8CC
:1030D0002050012D01D0022D7DD151B92068C0684A
:1030E00000F0030080B9606A40F4001060620120C3
:1030F00070BD2068006900F0030028B9606A40F4E0
:10310000001060620120F3E7206800F5D87000EB42
:103110000110006800F004009060906840B92068D9
:1031200000F5D87000EB01100068400D106007E05A
:10313000206800F5D87000EB01100068C0085060EE
:10314000206800F5D87000EB0110006800F0020064
:10315000D060206800F5D87000EB0110406800F0E6
:103160000F001061206800F5D87000EB0110406876
:1031700000F47F40000A9061206800F5D87000EBF1
:1031800001104068000C5061206800F5D87000EB19
:10319000011080681870206800F5D87000EB0110ED
:1031A000806800F47F40000A5870206800F5D870ED
:1031B00000EB0110806800F47F00000C987020681C
:1031C00000F5D87000EB01108068000ED870206800
:1031D00000F5D87000E02FE000EB0110C068187116
:1031E000206800F5D87000EB0110C06800F47F4043
:1031F000000A5871206800F5D87000EB0110C06813
:1032000000F47F00000C9871206800F5D87000EB86
:103210000110C068000ED87131B92068C06840F054
:1032200020002668F06005E02068006940F020007A
:103230002668306100205BE7606A40F480206062AD
:10324000012055E72DE9F05F044600252068466916
:103250002068D0F80490206887682068D0F80CA017
:103260002068D0F810B02068D0F8188006F001006F
:10327000002855D007F00100C0B101202168886006
:1032800007F0020018B1204600F0F5FA0EE007F052
:10329000040010B145F4006508E007F0080010B123
:1032A00045F4805502E0204600F0E4FA07F480700F
:1032B000C8B14FF480702168886007F4007018B1BD
:1032C000204600F0DAFA0EE007F4806010B145F411
:1032D000005508E007F4006010B145F4804502E0B5
:1032E000204600F0C9FA07F48030C8B14FF48030AE
:1032F0002168886007F4003018B1204600F0BFFA5A
:103300000EE007F4802010B145F4004508E007F412
:10331000002010B145F4803502E0204600F0AEFAFE
:1033200006F0080038B10AF0100020B145F400752D
:1033300010202168C86006F0040040B10AF00800BF
:1033400028B108202168C860204600F00DFA06F078
:10335000020038B12068C06800F0030010B12046B8
:1033600000F004FA06F0400038B10BF0100020B174
:1033700045F4806510202168086106F0200040B106
:103380000BF0080028B1082021680861204600F0F1
:103390003FFA06F0100038B12068006900F0030021
:1033A00010B1204600F035FA06F4003040B109F0C3
:1033B000100028B1102021684860204600F02AFA49
:1033C00006F4803040B109F0080028B108202168D7
:1033D0004860204600F054FA06F4004088B309F033
:1033E000040078B306F4807020B108F0010008B141
:1033F00045F0010506F4007020B108F0020008B1A4
:1034000045F0020506F4806020B108F0040008B120
:1034100045F0040506F40060A0B108F0700088B122
:1034200008F07000402817D006DC10280BD02028A8
:103430000CD0302819D10CE0502810D0602814D1BD
:1034400010E01DE019E045F008050FE045F010051B
:103450000CE045F0200509E045F0400506E045F0A8
:10346000800503E045F4807500E000BF00BF2068E0
:10347000806920F07000216888610420216848601C
:103480002DB1606A284360622046FFF71DFEBDE84B
:10349000F09F70B504460CB9012070BD94F820006F
:1034A00010B9204600F0B0F82068006820F0020053
:1034B0002168086000F056FE05460DE000F052FE5F
:1034C000401B0A2808D9606A40F400306062052079
:1034D00084F820000120E0E72068406800F0020046
:1034E0000028EBD12068006840F0010021680860E6
:1034F00000F038FE05460DE000F034FE401B0A28BF
:1035000008D9606A40F400306062052084F8200029
:103510000120C2E72068406800F001000028EBD0DD
:10352000207E012806D12068006840F080002168D4
:10353000086005E02068006820F0800021680860CD
:10354000607E012806D12068006840F040002168B4
:10355000086005E02068006820F0400021680860ED
:10356000A07E012806D12068006840F02000216874
:10357000086005E02068006820F0200021680860ED
:10358000E07E012806D12068006820F01000216844
:10359000086005E02068006840F0100021680860BD
:1035A000207F012806D12068006840F008002168CB
:1035B000086005E02068006820F0080021680860C5
:1035C000607F012806D12068006840F0040021686F
:1035D000086005E02068006820F0040021680860A9
:1035E000D4E902010843216908436169084361681D
:1035F000491E08432168C86100206062012084F8E8
:103600002000002049E7000010B586B004461421D0
:1036100001A8FDF7A6F84E492068884241D14D48DF
:103620000068401C4B4908600846006801280FD11B
:1036300000BF002000904848006840F000704649F4
:1036400008600846006800F00070009000BF00BFEE
:1036500000BF0020009040481038006840F008008B
:103660003D49103908600846006800F008000090E5
:1036700000BF00BF032001900220029000200390B1
:10368000032004900920059001A9344800F05CFC57
:1036900000220521142001F08DF9142001F07AF99F
:1036A00054E02F492068884250D100BF002000908C
:1036B0002948006840F08060274908600846006893
:1036C00000F08060009000BF00BF22480068401CEE
:1036D000204908600846006801280FD100BF00207B
:1036E00000901D48006840F000701B4908600846C3
:1036F000006800F00070009000BF00BF00BF002015
:10370000009015481038006840F002001249103946
:1037100008600846006800F00200009000BF00BF8B
:10372000602001900220029000200390032004906A
:103730000920059001A90B4800F006FC0022052194
:10374000402001F037F9402001F024F906B010BD07
:10375000006400404005002040380240000C024058
:103760000068004000040240704700001CB5044699
:103770002048844212D12048006878B11F4BA3F141
:103780001C0200211B48FFF7A0FC002301AA1B49D3
:103790001C391948006811F0DFF800BF184884424E
:1037A00012D11848006870B1174BA3F11C02002118
:1037B0001348FFF78AFC00236A4613491C39114855
:1037C000006811F0C9F800BF019838B14FF080507F
:1037D0000E490860BFF34F8FBFF36F8F009838B169
:1037E0004FF0805009490860BFF34F8FBFF36F8FD0
:1037F0001CBD00005426002010050020204500209C
:103800007C26002014050020FC44002004ED00E08C
:1038100070477047704770B5044694F8200001283F
:1038200022D1022084F820002068006820F00100E6
:103830002168086000F096FC05460DE000F092FC5F
:10384000401B0A2808D9606A40F4003060620520F5
:1038500084F82000012070BD2068406800F001005D
:103860000028EBD16062F6E7606A40F400206062F5
:103870000120F0E770477047704770477047704706
:103880007047014691F83500022803D08020486532
:1038900001207047052081F835000868006820F095
:1038A00001000A6810600020F3E70000F8B5044644
:1038B000002000908C4800684FF41651B0FBF1F7DF
:1038C000A56D2E6894F85C1008208840304098B1AF
:1038D0002068006800F0040070B12068006820F0E3
:1038E00004002168086094F85C1008208840A860F3
:1038F000606D40F00100606594F85C100120884024
:10390000304068B12068406900F0800040B194F810
:103910005C1001208840A860606D40F00200606586
:1039200094F85C1004208840304068B1206800683A
:1039300000F0020040B194F85C1004208840A860B8
:10394000606D40F00400606594F85C1010208840C1
:10395000304078B32068006800F0080050B394F855
:103960005C1010208840A8602068006800F4802067
:1039700080B12068006800F4002028B9206CC8B12C
:103980002046216C884715E0A06C98B12046A16CB8
:1039900088470FE02068006800F4807028B920682C
:1039A000006820F0080021680860206C10B12046F3
:1039B000216C884794F85C10202088403040002813
:1039C00065D02068006800F0100000285FD094F8EF
:1039D0005C1020208840A86094F83500052828D184
:1039E0002068006820F0160021680860206840699F
:1039F00020F0800021684861206C08B9A06C28B1D3
:103A00002068006820F008002168086094F85C10C5
:103A10003F208840A86000BF002084F8340000BF29
:103A2000012084F83500206D10B12046216D8847B3
:103A3000F8BD2068006800F4802080B1206800682C
:103A400000F4002028B9606C10B12046616C8847F2
:103A50001DE0E06BD8B12046E16B884717E0206895
:103A6000006800F4807068B92068006820F01000D9
:103A70002168086000BF002084F8340000BF0120E6
:103A800084F83500E06B10B12046E16B8847606D2B
:103A900038B3606D00F00100F0B1052084F8350006
:103AA0002068006820F001002168086000BF0098CD
:103AB000401C0090B84200D905E02068006800F082
:103AC00001000028F3D100BF00BF002084F83400BB
:103AD00000BF012084F83500E06C10B12046E16C95
:103AE000884700BFA4E70000200700202DE9F0412F
:103AF0000446002500F036FB074614B90120BDE856
:103B0000F081606A00B100BF00BF002084F834007B
:103B100000BF022084F835002068006820F0010012
:103B2000216808600AE000F01DFBC01B052805D9CC
:103B300020206065032084F83500E0E720680068F5
:103B400000F001000028EED12068056821480540FA
:103B5000D4E901010843E168084321690843616928
:103B60000843A1690843E1690843216A0843054302
:103B7000606A042803D1D4E90B0108430543206897
:103B800005602068456925F00705606A0543606A9D
:103B900004280DD1A06A0543E06A48B12046FEF72B
:103BA0005BF928B140206065012084F83500A6E764
:103BB000206845612046FEF735F9064694F85C100A
:103BC0003F208840B06000206065012084F8350007
:103BD000002094E73F8010F02DE9F04104460D46A7
:103BE00016461F464FF0000800BF94F83400012825
:103BF00002D10220BDE8F081012084F8340000BF2A
:103C000094F83500012811D1022084F835000020F5
:103C100060653B46324629462046FEF772F9206829
:103C2000006840F001002168086006E000BF002045
:103C300084F8340000BF4FF002084046DAE72DE96F
:103C4000F04704460D4616461F464FF00008D4F8CC
:103C5000589000BF94F83400012802D10220BDE83A
:103C6000F087012084F8340000BF94F83500012863
:103C700025D1022084F83500002060653B4632469D
:103C800029462046FEF73DF994F85C103F20884015
:103C9000C9F808002068006840F016002168086034
:103CA000206C28B12068006840F008002168086096
:103CB0002068006840F001002168086006E000BF4D
:103CC000002084F8340000BF4FF002084046C6E7E9
:103CD00070B5044600F046FA06462546681C10B149
:103CE00004480078054400BF00F03CFA801BA8425D
:103CF000FAD370BD2C0700202DE9F04104460E4692
:103D00000127002500BF2548007E012802D102209E
:103D1000BDE8F08101202149087600BF4CF2503007
:103D2000FEF756FC0746002F31D1401E3060206858
:103D300001280FD1207C6168FEF78EFB4CF25030D9
:103D4000FEF746FC07461648006820F004001449B8
:103D500008601AE0A56812E0217C2846FEF712FBF5
:103D60004CF25030FEF734FC07460D48006820F056
:103D7000FA000B4908600FB1356005E06D1CD4E90D
:103D800002100844A842E7D800BFFEF729FB00BF95
:103D900000200249087600BF3846B9E76447002092
:103DA000103C02400348006840F0004001490860B0
:103DB00000207047103C02402DE9F04106460F46B6
:103DC00014461D464FF0010800BF1F48007E012821
:103DD00002D10220BDE8F08101201B49087600BF16
:103DE0004CF25030FEF7F4FB8046B8F1000F23D1BF
:103DF00026B9E1B23846FEF747FB12E0012E04D1A6
:103E0000A1B23846FEF770FB0BE0022E04D121462A
:103E10003846FEF77DFB04E022462B463846FEF787
:103E200045FB4CF25030FEF7D3FB80460748006854
:103E300020F001000549086000BF00200249087613
:103E400000BF4046C6E7000064470020103C024027
:103E500000200949096801F0004159B10749064AA3
:103E60000C3A1160064911600349096801F00041EC
:103E700001B1012070470000103C0240230167455A
:103E8000AB89EFCD10B50446102C11D11F48007836
:103E900040F001001D4908701D48007840F0010005
:103EA0001B4908701B48007870B30EF079FB2BE0BB
:103EB000202C0BD11848007840F0010016490870FA
:103EC0001448007800B30EF06BFB1DE0082C06D1FF
:103ED0001248007840F001001049087014E0012CED
:103EE00012D110F09FFF01280ED00D490D48006837
:103EF00010F060F90A48006830B120070A490860EC
:103F0000BFF34F8FBFF36F8F10BD00005E06002020
:103F10005F060020610600205D060020600600208C
:103F2000D40600203806002004ED00E010B5044659
:103F300004480068204020B1024804602046FFF792
:103F4000A1FF10BD143C0140F8B502460B46002508
:103F5000002400200021DCE0012606FA01F51E689D
:103F600006EA0504AC4273D15E68012E08D05E6893
:103F7000022E05D05E68112E02D05E68122E13D17B
:103F800090684F000326BE40B0434F00DE68BE403D
:103F900030439060506801268E40B0431E79C6F3CE
:103FA00000168E4030435060D0684F000326BE405C
:103FB000B0434F009E68BE403043D0605E68022E22
:103FC00002D05E68122E13D1CF0802F1200656F8F7
:103FD00027004E07F70E0F26BE40B0434F07FF0ED7
:103FE0001E69BE403043CF0802F1200646F8270084
:103FF00010684F000326BE40B0431E7906F003064A
:104000004F00BE40304310605E6806F08056B6F147
:10401000805F7DD100BF00260096404E366846F492
:1040200080463E4F3E603E46366806F48046009627
:1040300000BF00BF3A4E8F0856F827008E07370F93
:104040000F26BE40B043374EB24202D1002624E0D4
:104050005EE0354EB24201D101261EE0334EB2423F
:1040600001D1022619E0324EB24201D1032614E0FA
:10407000304EB24201D104260FE02F4EB24201D1A0
:1040800005260AE02D4EB24201D1062605E02C4E4F
:10409000B24201D1072600E008268F073F0FBE403D
:1040A00030431F4E8F0846F82700264E3068A04345
:1040B0005E6806F48036B6F5803F00D12043214E7D
:1040C0003060361D3068A0435E6806F40036B6F5F1
:1040D000003F00D120431B4E361D3060361D306836
:1040E000A0435E6806F48016B6F5801F00D1204319
:1040F000144E08363060361D3068A0435E6806F402
:104100000016B6F5001F00D120430E4E0C3630606D
:10411000491C1029FFF420AFF8BD000044380240CC
:10412000083801400000024000040240000802403C
:10413000000C02400010024000140240001802402F
:10414000001C0240003C0140024613690B400BB1C9
:10415000012000E0002070470AB1816101E00B04FA
:104160008361704701480068704700002407002001
:1041700070B504460CB9012070BD94F83D0028B913
:10418000002084F83C00204600F006FB242084F840
:104190003D002068006820F0010021680860206868
:1041A000006840F40040216808602068006820F43E
:1041B00000402168086001F047FB05465C496068E3
:1041C000884206D85B48854201D2012007E00020E2
:1041D00005E05948854201D2012000E00020012875
:1041E00000D1C9E75548B5FBF0F62068406820F0DB
:1041F0003F003043216848604D496068884201D8DB
:10420000701C07E04FF4967070434FF47A71B0FB66
:10421000F1F0401C2168096A21F03F010843216840
:10422000086243496068884214D8681E6168490082
:10423000B0FBF1F0401CC0F30B00042801D20420B5
:104240003DE0681E61684900B0FBF1F0401CC0F31E
:104250000B0034E0A06838B9681E616801EB4101C9
:10426000B0FBF1F0401C0AE0681E616801EBC1027E
:1042700002EB0111B0FBF1F0401C40F48040C0F3B0
:104280000B0008B901201AE0A06848B9681E6168EF
:1042900001EB4101B0FBF1F0401CC0F30B000CE05E
:1042A000681E616801EBC10202EB0111B0FBF1F085
:1042B000401CC0F30B0040F4804040F400402168F3
:1042C000C9694CF6FF72914308432168C861D4E97B
:1042D000070108432168096821F0C00108432168EB
:1042E0000860D4E9031008432168896848F2FF3266
:1042F0009143084321688860D4E905010843216897
:10430000C96821F0FF0108432168C860206800687F
:1043100040F001002168086000202064202084F81B
:104320003D000020206384F83E0000BF24E7000029
:10433000A086010080841E0000093D0040420F005D
:104340002DE9FC5F04460F4690469946DDE90CAB2B
:104350000E9EFFF707FF054694F83D00202870D118
:1043600019230122B0492046009503F053F810B1FB
:104370000220BDE8FC9F00BF94F83C00012801D159
:104380000220F6E7012084F83C0000BF20680068A6
:1043900000F0010028B92068006840F001002168A1
:1043A00008602068006820F400602168086022200E
:1043B00084F83D00402084F83E0000202064C4F8CA
:1043C00024A0A4F82AB0608D20859848E0624B466E
:1043D000424639462046CDE9006502F0CDFE08B1DF
:1043E0000120C6E7208D88B900BF00200190206819
:1043F0004069019020688069019000BF00BF20687B
:10440000006840F400702168086040E0208D0128B9
:1044100018D12068006820F480602168086000BF1F
:104420000020019020684069019020688069019017
:1044300000BF00BF2068006840F400702168086079
:1044400025E0EFE0208D022816D12068006820F4D6
:104450008060216808602068006840F4006021687E
:10446000086000BF0020019020684069019020682A
:104470008069019000BF0AE000BF00200190206821
:104480004069019020688069019000BF00BFBAE0D8
:10449000208D03287ED8208D012815D12A4631464B
:1044A000204603F05CF808B1012062E7206800694B
:1044B000616A0870606A401C6062208D401E208521
:1044C000608D401E60859EE0208D02282AD13346F3
:1044D000002257492046009502F09CFF08B10120B8
:1044E00047E72068006840F4007021680860206891
:1044F0000069616A0870606A401C6062208D401E1D
:104500002085608D401E608520680069616A0870A2
:10451000606A401C6062208D401E2085608D401EB8
:10452000608570E03346002241492046009502F044
:1045300071FF08B101201CE72068006820F480604A
:104540002168086020680069616A0870606A401C20
:104550006062208D401E2085608D401E6085334640
:10456000002233492046009502F054FF08B1012093
:10457000FFE62068006840F4007021680860206849
:104580000069616A0870606A401C6062208D401E8C
:10459000208500E010E0608D401E60852068006985
:1045A000616A0870606A401C6062208D401E208530
:1045B000608D401E608526E02A463146204602F086
:1045C000CEFF08B10120D4E620680069616A087056
:1045D000606A401C6062208D401E2085608D401EF8
:1045E000608520684069C0F3800060B12068006980
:1045F000616A0870606A401C6062208D401E2085E0
:10460000608D401E6085208D00287FF441AF202002
:1046100084F83D00002084F83E0000BF84F83C0090
:1046200000BFA6E60220A4E6020010000000FFFF83
:10463000040001002DE9FC5F04460F4690469946B0
:10464000DDE90CAB0E9EFFF78DFD054694F83D00AD
:1046500020287DD1192301224D492046009502F0E2
:10466000D9FE10B10220BDE8FC9F00BF94F83C00C9
:10467000012801D10220F6E7012084F83C0000BFA8
:104680002068006800F0010028B92068006840F048
:104690000100216808602068006820F4006021683B
:1046A0000860212084F83D00402084F83E0000206E
:1046B0002064C4F824A0A4F82AB0608D2085354871
:1046C000E0624B46424639462046CDE9006502F09D
:1046D00003FE08B10120C6E731E02A4631462046F4
:1046E00002F07DFF50B1206C042805D120680068DD
:1046F00040F40070216808600120B4E7606A007827
:1047000021680861606A401C6062208D401E20851F
:10471000608D401E608520684069C0F3800070B1E4
:10472000208D60B1606A007821680861606A401C71
:104730006062208D401E2085608D401E6085208D2A
:104740000028CAD12A463146204602F035FE00E054
:104750001CE050B1206C042805D12068006840F4AA
:1047600000702168086001207DE72068006840F43F
:10477000007021680860202084F83D00002084F843
:104780003E0000BF84F83C0000BF6CE702206AE7EF
:10479000020010000000FFFF10B586B0044614218F
:1047A00001A8FBF7DEFF2A49206888424DD100BFEF
:1047B000002000902748006840F004002549086068
:1047C0000846006800F00400009000BF00BF00BF72
:1047D000002000900846006840F00100086008468C
:1047E000006800F00100009000BF00BF4815019074
:1047F00012200290012003900320049004200590D1
:1048000001A91548FFF7A0FB4FF48070019012201A
:10481000029001200390032004900420059001A938
:104820000E48FFF791FB00BF0020009009481030B0
:10483000006840F40000074910310860084600682D
:1048400000F40000009000BF00BF06B010BD0000E3
:10485000005C004030380240000802400000024086
:104860000348006803490978084401490860704713
:10487000240700202C07002010B50D48006840F4E4
:1048800000700B4908600846006840F480600860CA
:104890000846006840F480700860032000F0C8F803
:1048A000002000F007F800F04BF8002010BD0000D9
:1048B000003C024070B588B0044600250026002266
:1048C0002146362000F076F8362000F063F800BF6D
:1048D000002001901648006840F01000144908605C
:1048E0000846006800F01000019000BF00BF02A958
:1048F00003A800F081FF00F0A7FF45000D48B5FBBD
:10490000F0F0461E0C480D49086040F2E7310B48B4
:10491000C160466000210161816001F0BFFD20B9E6
:10492000064801F052FE08B070BD0120FBE7000010
:104930004038024040420F0000100040284500204F
:1049400008B500BF002000901148006840F4804086
:104950000F4908600846006800F48040009000BFDE
:1049600000BF00BF00200090081F006840F080508A
:10497000091F08600846006800F08050009000BFE2
:1049800000BF00220F21901E00F014F808BD0000A7
:104990004438024001460846002809DB00F01F03A6
:1049A00001229A4043099B0003F1E023C3F8002150
:1049B00000BF70472DE9F05F80460D461646002780
:1049C0000BF07AFD074639462A46334601F00700C8
:1049D000C0F1070ABAF1040F02D94FF0040A01E04E
:1049E000C0F1070AD14600F1040ABAF1070F02D25A
:1049F0004FF0000A01E0A0F1030AD4464FF0010A8B
:104A00000AFA09FAAAF1010A0AEA020A0AFA0CFAEF
:104A10004FF0010B0BFA0CFBABF1010B0BEA030B94
:104A20004AEA0B04214640460BF04EFDBDE8F09FDC
:104A300000BF00F00702064B19684FF6FF0319404C
:104A4000044B0B4343EA0221014B196000BF70473E
:104A50000CED00E00000FA05704702461068416264
:104A600000207047F0B5034615461868446A21B91E
:104A700044EA05401E68B06219E01868806A04EBD9
:104A80001044002208E0186800F5827050F82200F7
:104A900004EB1044501CC2B2481E9042F3D844EAC2
:104AA0000547186800F582704E1E40F826700020F9
:104AB000F0BD10B50446D4F8040409F0ACFD10BDF7
:104AC00070B504460D46C5EBC50304F13C0101EB8E
:104AD0008301CA682946D4F8040409F0E0FC70BDDB
:104AE00070B504460D46C5EBC50304F5FE7101EB38
:104AF0008301CA682946D4F8040409F043FD70BD57
:104B000010B50446D4F8040409F088FD10BD70B552
:104B100004460E4606F0800080280AD106F00F00F9
:104B2000C0EBC00104F13C0000EB8105012068707E
:104B300009E006F00F00C0EBC00104F5FE7000EBC9
:104B400081050020687006F00F00287000BF94F8FF
:104B5000BC03012801D1022070BD012084F8BC03F0
:104B600000BF294620680AF063FA00BF002084F8DD
:104B7000BC0300BF00BFEFE770B504460E4606F069
:104B80000F006168884201D9012070BD06F08000E5
:104B900080280AD106F00F00C0EBC00104F13C00F0
:104BA00000EB81050120687009E006F00F00C0EB02
:104BB000C00104F5FE7000EB810500206870002044
:104BC000A87006F00F00287000BF94F8BC030128FD
:104BD00001D10220D9E7012084F8BC0300BF294697
:104BE00020680AF00BFD00BF002084F8BC0300BF62
:104BF00000BFCAE7024601F00F00C0EBC00302F598
:104C0000FE7000EB8300806970472DE9F047054690
:104C10000E4690461F464FF0000906F0800080289F
:104C20000AD106F00F00C0EBC00105F13C0000EB1B
:104C300081040120607009E006F00F00C0EBC001A4
:104C400005F5FE7000EB81040020607006F00F0097
:104C50002070C4F80880E770607808B12078E080A0
:104C6000022F01D10020207100BF95F8BC0301285C
:104C700002D10220BDE8F087012085F8BC0300BF07
:104C8000214628680AF0F0F800BF002085F8BC0330
:104C900000BF4846EEE72DE9F04104460E461746B0
:104CA000984606F00F00C0EBC00104F5FE7000EB63
:104CB0008105EF60C5F814800020A861687006F0D7
:104CC0000F0028702069012800D12F6106F00F0025
:104CD00028B9227C294620680AF06CFB04E0227C7B
:104CE000294620680AF01EFD0020BDE8F08170B55D
:104CF00004460D4605F00F006168884201D9012085
:104D000070BD05F0800080280AD105F00F00C0EBCF
:104D1000C00104F13C0000EB81060120707007E047
:104D2000C5EBC50104F5FE7000EB81060020707034
:104D30000120B07005F00F00307000BF94F8BC0384
:104D4000012801D10220DBE7012084F8BC0300BF69
:104D5000314620680AF099FC05F00F0028B9217C43
:104D600004F5717220680AF011FC00BF002084F87D
:104D7000BC0300BF00BFC3E72DE9F04104460E4667
:104D80001746984606F00F00C0EBC00104F13C0046
:104D900000EB8105EF60C5F814800020A8610120B8
:104DA000687006F00F0028702069012800D12F617B
:104DB00006F00F0028B9227C294620680AF0FAFA8A
:104DC00004E0227C294620680AF0ACFC0020BDE803
:104DD000F0812DE9FE4F044620680290029D206874
:104DE0000AF08BFE00287DD120680AF0C5FE08B9C4
:104DF000BDE8FE8F20680AF0BFFE00F00200022826
:104E000005D12068406900F00200216848612068EF
:104E10000AF0B2FE00F01000102846D12068806928
:104E200020F01000216888610298D0F8209009F0E5
:104E30000F00C0EBC00104F5FE7000EB810BC9F35D
:104E4000434002281AD147F6F07009EA000030B357
:104E5000C9F30A12DBF80C1002980AF092FEC9F3AB
:104E60000A11DBF80C000844CBF80C00C9F30A1156
:104E7000DBF818000844CBF8180010E0C9F34340F1
:104E800006280CD1082204F5717102980AF079FE07
:104E9000C9F30A11DBF818000844CBF818002068A1
:104EA000806940F010002168886120680AF064FE83
:104EB00000F40020B0F5002F52D1002620680AF03F
:104EC0002BFE824649E00AF00100E8B3F1B2206807
:104ED0000AF045FE804608F0010058B1012105F5B1
:104EE000306000E021E200EB461081603146204650
:104EF00004F050FD08F00800082809D1082105F544
:104F0000306000EB461081603146204604F010FD11
:104F100008F01000102805D1102105F5306000EBD5
:104F20004610816008F02000202805D1202105F5D9
:104F3000306000EB4610816008F40050B0F5005F6F
:104F400008D14FF4005100E004E005F5306000EBBB
:104F500046108160761C4FEA5A0ABAF1000FB2D1AE
:104F600020680AF009FE00F48020B0F5802F7ED181
:104F700020680AF0C7FD8246002683E00AF001009F
:104F800000287CD0F1B220680AF0D0FD804608F0FD
:104F90000100F0B306F00F0101208840019040F6B7
:104FA00034004159019821EA000040F6340148518B
:104FB000012105F5106000EB461081602069012891
:104FC00024D1C6EBC60104F13C0000EB8100C6EB26
:104FD000C602C16804F13C0000EB82008068014415
:104FE000C6EBC60204F13C0000EB8200C1606EB962
:104FF000C6EBC60104F13C0000EB8100406928B912
:1050000004F57172012120680AF0C0FAF1B220465D
:1050100000E001E0FFF754FD08F00800082805D182
:10502000082105F5106000EB4610816008F01000C3
:10503000102805D1102105F5106000EB46108160A5
:1050400008F04000402805D1402105F5106000EB34
:105050004610816008F00200022805D1022105F502
:10506000106000EB4610816008F0800001E00DE068
:1050700005E0802803D13146204604F049FD761C26
:105080004FEA5A0ABAF1000F7FF478AF20680AF0AD
:1050900073FD00F00040B0F1004F1CD140F6040059
:1050A000405920F0010140F60400415194F8F40306
:1050B000012807D1002084F8F40300212046FFF7DF
:1050C000CBFC02E0204600F063FA2068406900F063
:1050D00000402168486120680AF04EFD00F400603D
:1050E000B0F5006F0ED140F60800405900F0010005
:1050F00010B1204600F0A4FA2068406900F4006076
:105100002168486120680AF037FD00F48050B0F54E
:10511000805F7DD140F60400405920F0010140F647
:1051200004004151102120680AF0BCFC00273EE039
:105130004FF67F3105F5106000EB4710816005F5F3
:10514000106000EB4710006820F4001105F51060B6
:1051500000EB4710016005F5106000EB4710006898
:1051600040F0006105F5106000EB471001604FF65C
:105170007F3105F5306000EB4710816005F5306048
:1051800000EB4710006820F4001105F5306000EBDB
:105190004710016005F5306000EB4710006840F0F3
:1051A000006105F5306000EB471001607F1C60680E
:1051B000B842BDD840F61C00405940F0011140F6FD
:1051C0001C004151206B70B1D5F8840840F00B01F0
:1051D000C5F8841840F64400405940F00B0140F6F1
:1051E000440041510FE040F61400405942F22B01B7
:1051F000084340F614014851081F405940F00B0184
:105200004FF401604151D5F8000820F4FE6000E041
:105210000DE0C5F80008217C04F5717220680AF0E1
:10522000B5F92068406900F4805021684861206821
:105230000AF0A2FC00F40050B0F5005F17D120681E
:1052400009F07AFE20680AF045FCE06000F0F6FA0A
:105250000090227B206800990AF0DEFC204600F0D6
:105260007FF92068406900F4005021684861206897
:105270000AF082FC00F00800082808D1204600F05F
:105280008EF92068406900F00800216848612068B4
:105290000AF072FC00F48010B0F5801F0AD10026DD
:1052A0003146204600F043F82068406900F4801041
:1052B0002168486120680AF05FFC00F40010B0F536
:1052C000001F0AD100263146204600F039F8206838
:1052D000406900F400102168486120680AF04CFC25
:1052E00000F08040B0F1804F08D12046FFF7E1FB8D
:1052F0002068406900F080402168486120680AF019
:105300003BFC00F0040004280FD12068D0F8049082
:1053100009F00400042802D12046FFF7F1FB2068C1
:10532000406840EA09002168486000BF60E570B548
:1053300004460D462946D4F8040409F0D9F970BD95
:1053400070B504460D462946D4F8040409F0D3F993
:1053500070BD70B58AB0044614B901200AB070BDA2
:10536000266894F8BD0328B9002084F8BC032046C1
:1053700000F0A2F8032084F8BD03F06B00F4807005
:1053800008B90021216120680AF00CF8282204F1F4
:1053900010016846FBF7ABF994E80F0009F0E0FD57
:1053A00020B1022084F8BD030120D7E70021206846
:1053B0000AF0F8FB002531E00121C5EBC50204F13C
:1053C0003C0000EB82004170C5EBC50104F13C00DC
:1053D00000F82150C5EBC50100EB8100C58000211C
:1053E000C5EBC50204F13C0000EB8200C170C5EBC7
:1053F000C50204F13C0000EB82008160C5EBC502F0
:1054000004F13C0000EB8200C160C5EBC50204F171
:105410003C0000EB82004161681CC5B26068A84294
:10542000CAD800252AE00021C5EBC50204F5FE70AC
:1054300000EB82004170C5EBC50104F5FE7000F879
:1054400021500021C5EBC50200EB8200C170C5EB05
:10545000C50204F5FE7000EB82008160C5EBC50259
:1054600004F5FE7000EB8200C160C5EBC50204F5D7
:10547000FE7000EB82004161681CC5B26068A84202
:10548000D1D8282204F110016846FBF730F994E8DE
:105490000F0009F097FE20B1022084F8BD0301201F
:1054A0005CE7002084F83800012084F8BD03206800
:1054B00009F076FE002051E710B586B004461421AD
:1054C00001A8FBF74EF92068B0F1A04F42D100BF10
:1054D000002000902048006840F001001E4908604C
:1054E0000846006800F00100009000BF00BF4FF4C4
:1054F000C0500190022002900020039003200490ED
:105500000A20059001A91548FEF71EFD00BF1248AC
:10551000001D006840F080000F49091D086000BFB1
:10552000002000900C481430006840F480400A4984
:10553000143108600846006800F48040009000BF05
:1055400000BF00BF002205214320FFF733FA4320AC
:10555000FFF720FA06B010BD3038024000000240CC
:1055600070B504460125E06808B9002506E0E0684A
:10557000022801D1012501E0FCF703FF2946D4F8F8
:10558000040409F034F9D4F8040409F0E7F870BD14
:1055900010B50446D4F8040409F00DF910BD10B597
:1055A0000446D4F8040409F011F910BD70B504469E
:1055B0000D4600BF94F8BC03012801D1022070BD44
:1055C000012084F8BC0300BF84F8385029462068C5
:1055D0000AF003FB00BF002084F8BC0300BF00BF3B
:1055E000EDE710B5044604F57171D4F8040409F030
:1055F00015F910BD70B50446256800BF94F8BC03CA
:10560000012801D1022070BD012084F8BC0300BF35
:10561000A06A012806D1A069012803D0A86B40F434
:105620008030A86320680AF01FFA206809F0A6FD00
:1056300000BF002084F8BC0300BF00BFE3E7000008
:1056400010B50446D4F8040409F045F92068D0F8F0
:10565000000E40F001002168C1F8000E206A28B158
:105660000348006840F006000149086010BD0000D2
:1056700010ED00E070B504460D460CB9012070BD78
:105680005848006800F00F00A84209D255490D7033
:105690000846006800F00F00A84201D00120EEE7A4
:1056A000207800F0020002281DD1207800F00400CC
:1056B000042805D14C48006840F4E0504A4908608D
:1056C000207800F00800082805D14748006840F419
:1056D0006040454908604448006820F0F000A16837
:1056E000084341490860207800F00100A8B36068D1
:1056F000012807D13C4808380068C0F34040B8B9D9
:105700000120BCE76068022802D06068032807D146
:10571000354808380068C0F3406048B90120AEE75A
:10572000314808380068C0F3400008B90120A6E7F6
:105730002D48006820F00300616808432A4908608A
:10574000FEF710FD064609E0FEF70CFD801B41F256
:105750008831884202D9032091E707E02248006897
:1057600000F00C006168B0EB810FEDD11D480068BE
:1057700000F00F00A84209D91A490D7008460068C8
:1057800000F00F00A84201D0012078E7207800F057
:105790000400042807D11448006820F4E050E168B0
:1057A000084311490860207800F00800082808D153
:1057B0000D48006820F46040216940EAC1000A49B0
:1057C000086000F061F808490968C1F30311074A4D
:1057D000515CC8400649086006480068FFF76AF84F
:1057E00000204CE7003C024008380240137C0108CE
:1057F00020070020280700200F2202600D4A1268AF
:1058000002F0030242600B4A126802F0F00282606A
:10581000084A126802F4E052C260064A126802F4B2
:105820006042D2080261044A126802F00F020A6064
:105830007047000008380240003C02400148006800
:10584000704700002007002000B5FFF7F7FF04496C
:105850000968C1F38221034A515CC84000BD0000C1
:1058600008380240237C010800B5FFF7E7FF044930
:105870000968C1F34231034A515CC84000BD0000D1
:1058800008380240237C01082DE9F0470024002558
:105890000026A1462548006800F00C0020B104282D
:1058A00005D008283AD105E0DFF8849039E0DFF828
:1058B000849036E01D48001F006800F03F041B483C
:1058C000001F006800F4800078B11A481749091FCA
:1058D0000968C1F38811A0FB01700146224600232C
:1058E0003846FAF729FE05460EE011480F49091F10
:1058F0000968C1F38811A0FB01700146224600230C
:105900003846FAF719FE05460848001F0068C0F33C
:105910000140401C4600B5FBF6F902E0DFF81090AC
:1059200000BF00BF4846BDE8F087000008380240CD
:105930000024F400001BB700F8B504460CB90120A0
:10594000F8BD207800F00100002874D0F948006804
:1059500000F00C0004280DD0F648006800F00C00A0
:10596000082813D1F348001F006800F48000B0F548
:10597000800F0BD1EF4808380068C0F34040002882
:1059800059D06068002856D10120D9E700BF60686F
:10599000B0F5803F08D1E7480838006840F480300F
:1059A000E449083908601EE06068B0F5A02F0DD109
:1059B000E0480838006840F48020DE490839086073
:1059C0000846006840F4803008600CE0D948083888
:1059D000006820F48030D74908390860084600681C
:1059E00020F48020086000BF606890B1FEF7BAFB29
:1059F000054606E0FEF7B6FB401B642801D90320EC
:105A00009EE7CC4808380068C0F340400028F1D039
:105A100011E0FEF7A7FB054606E0FEF7A3FB401BDF
:105A2000642801D903208BE7C24808380068C0F316
:105A300040400028F1D1207800F0020002285FD118
:105A4000BC48006800F00C0058B1BA48006800F08B
:105A50000C0008281CD1B748001F006800F4800023
:105A6000B0B9B44808380068C0F3400020B1E0681D
:105A7000012801D0012063E7AE480838006820F013
:105A8000F800216940EAC100AA490839086037E0F6
:105A9000E06800B30120A8490860FEF763FB0546F3
:105AA00006E0FEF75FFB401B022801D9032047E711
:105AB000A04808380068C0F340000028F1D09D4895
:105AC0000838006820F0F800216940EAC1009949CF
:105AD0000839086014E0002097490860FEF742FB8F
